{
  "contractName": "ShanToken",
  "abi": [
    {
      "inputs": [
        {
          "internalType": "uint256",
          "name": "_totalSupply",
          "type": "uint256"
        }
      ],
      "stateMutability": "nonpayable",
      "type": "constructor"
    },
    {
      "inputs": [
        {
          "internalType": "address",
          "name": "",
          "type": "address"
        }
      ],
      "name": "balanceOf",
      "outputs": [
        {
          "internalType": "uint256",
          "name": "",
          "type": "uint256"
        }
      ],
      "stateMutability": "view",
      "type": "function"
    },
    {
      "inputs": [],
      "name": "name",
      "outputs": [
        {
          "internalType": "string",
          "name": "",
          "type": "string"
        }
      ],
      "stateMutability": "view",
      "type": "function"
    },
    {
      "inputs": [],
      "name": "symbol",
      "outputs": [
        {
          "internalType": "string",
          "name": "",
          "type": "string"
        }
      ],
      "stateMutability": "view",
      "type": "function"
    },
    {
      "inputs": [],
      "name": "totalSupply",
      "outputs": [
        {
          "internalType": "uint256",
          "name": "",
          "type": "uint256"
        }
      ],
      "stateMutability": "view",
      "type": "function"
    }
  ],
  "bytecode": "0x60806040526040518060400160405280600a81526020017f5368616e20546f6b656e000000000000000000000000000000000000000000008152506001908051906020019061004f92919061011b565b506040518060400160405280600581526020017f5368616e540000000000000000000000000000000000000000000000000000008152506002908051906020019061009b92919061011b565b503480156100a857600080fd5b506040516106c13803806106c183398181016040528101906100ca91906101f9565b80600360003373ffffffffffffffffffffffffffffffffffffffff1673ffffffffffffffffffffffffffffffffffffffff168152602001908152602001600020819055508060008190555050610287565b82805461012790610255565b90600052602060002090601f0160209004810192826101495760008555610190565b82601f1061016257805160ff1916838001178555610190565b82800160010185558215610190579182015b8281111561018f578251825591602001919060010190610174565b5b50905061019d91906101a1565b5090565b5b808211156101ba5760008160009055506001016101a2565b5090565b600080fd5b6000819050919050565b6101d6816101c3565b81146101e157600080fd5b50565b6000815190506101f3816101cd565b92915050565b60006020828403121561020f5761020e6101be565b5b600061021d848285016101e4565b91505092915050565b7f4e487b7100000000000000000000000000000000000000000000000000000000600052602260045260246000fd5b6000600282049050600182168061026d57607f821691505b6020821081141561028157610280610226565b5b50919050565b61042b806102966000396000f3fe608060405234801561001057600080fd5b506004361061004c5760003560e01c806306fdde031461005157806318160ddd1461006f57806370a082311461008d57806395d89b41146100bd575b600080fd5b6100596100db565b60405161006691906102ae565b60405180910390f35b610077610169565b60405161008491906102e9565b60405180910390f35b6100a760048036038101906100a29190610367565b61016f565b6040516100b491906102e9565b60405180910390f35b6100c5610187565b6040516100d291906102ae565b60405180910390f35b600180546100e8906103c3565b80601f0160208091040260200160405190810160405280929190818152602001828054610114906103c3565b80156101615780601f1061013657610100808354040283529160200191610161565b820191906000526020600020905b81548152906001019060200180831161014457829003601f168201915b505050505081565b60005481565b60036020528060005260406000206000915090505481565b60028054610194906103c3565b80601f01602080910402602001604051908101604052809291908181526020018280546101c0906103c3565b801561020d5780601f106101e25761010080835404028352916020019161020d565b820191906000526020600020905b8154815290600101906020018083116101f057829003601f168201915b505050505081565b600081519050919050565b600082825260208201905092915050565b60005b8381101561024f578082015181840152602081019050610234565b8381111561025e576000848401525b50505050565b6000601f19601f8301169050919050565b600061028082610215565b61028a8185610220565b935061029a818560208601610231565b6102a381610264565b840191505092915050565b600060208201905081810360008301526102c88184610275565b905092915050565b6000819050919050565b6102e3816102d0565b82525050565b60006020820190506102fe60008301846102da565b92915050565b600080fd5b600073ffffffffffffffffffffffffffffffffffffffff82169050919050565b600061033482610309565b9050919050565b61034481610329565b811461034f57600080fd5b50565b6000813590506103618161033b565b92915050565b60006020828403121561037d5761037c610304565b5b600061038b84828501610352565b91505092915050565b7f4e487b7100000000000000000000000000000000000000000000000000000000600052602260045260246000fd5b600060028204905060018216806103db57607f821691505b602082108114156103ef576103ee610394565b5b5091905056fea2646970667358221220b66bb60a1612c7dc5909a0503776f5bd095e2399190eda0d4694762d95f1f15d64736f6c634300080b0033",
  "immutableReferences": {},
  "source": "pragma solidity ^0.8.11;\r\n\r\ncontract ShanToken{\r\n\r\n    // This value store number of Tokens to be made avaialble for this Smart Contract \r\n    uint256 public totalSupply;\r\n\r\n    string public name  = \"Shan Token\";\r\n    string public symbol  = \"ShanT\";\r\n    \r\n\r\n    mapping (address => uint256) public balanceOf;\r\n\r\n     constructor(uint256 _totalSupply ){\r\n         balanceOf[msg.sender] = _totalSupply;\r\n        totalSupply = _totalSupply;\r\n    }\r\n}",
  "sourcePath": "C:\\shanToken\\contracts\\ShanToken.sol",
  "compiler": {
    "name": "solc",
    "version": "0.8.11+commit.d7f03943.Emscripten.clang"
  },
  "schemaVersion": "3.4.4",
  "updatedAt": "2022-02-07T14:55:29.358Z",
  "devdoc": {
    "kind": "dev",
    "methods": {},
    "version": 1
  },
  "userdoc": {
    "kind": "user",
    "methods": {},
    "version": 1
  }
}